{
  "_format": "hh-sol-artifact-1",
  "contractName": "AlternativeVault",
  "sourceName": "src/states/AlternativeVault.sol",
  "abi": [
    {
      "inputs": [
        {
          "internalType": "address",
          "name": "_asset",
          "type": "address"
        },
        {
          "internalType": "address",
          "name": "_entrypoint",
          "type": "address"
        },
        {
          "internalType": "address[6]",
          "name": "_withdrawalVerifiers",
          "type": "address[6]"
        },
        {
          "internalType": "address[5]",
          "name": "_mergeVerifiers",
          "type": "address[5]"
        },
        {
          "internalType": "address",
          "name": "_swapVerifier",
          "type": "address"
        }
      ],
      "stateMutability": "nonpayable",
      "type": "constructor"
    },
    {
      "inputs": [],
      "name": "AmountMismatch",
      "type": "error"
    },
    {
      "inputs": [],
      "name": "InvalidDepositAmount",
      "type": "error"
    },
    {
      "inputs": [],
      "name": "InvalidNoteCount",
      "type": "error"
    },
    {
      "inputs": [],
      "name": "InvalidRecipient",
      "type": "error"
    },
    {
      "inputs": [],
      "name": "InvalidStateRoot",
      "type": "error"
    },
    {
      "inputs": [],
      "name": "InvalidSwapParams",
      "type": "error"
    },
    {
      "inputs": [],
      "name": "InvalidWithdrawalAmount",
      "type": "error"
    },
    {
      "inputs": [],
      "name": "InvalidZKProof",
      "type": "error"
    },
    {
      "inputs": [],
      "name": "NativeFundReceived",
      "type": "error"
    },
    {
      "inputs": [],
      "name": "NativeTransferFailed",
      "type": "error"
    },
    {
      "inputs": [],
      "name": "NullifierAlreadySpent",
      "type": "error"
    },
    {
      "inputs": [],
      "name": "OnlyEntrypoint",
      "type": "error"
    },
    {
      "anonymous": false,
      "inputs": [
        {
          "indexed": true,
          "internalType": "address",
          "name": "depositor",
          "type": "address"
        },
        {
          "indexed": false,
          "internalType": "uint256",
          "name": "amount",
          "type": "uint256"
        },
        {
          "indexed": false,
          "internalType": "uint256",
          "name": "commitment",
          "type": "uint256"
        },
        {
          "indexed": false,
          "internalType": "uint256",
          "name": "precommitment",
          "type": "uint256"
        }
      ],
      "name": "Deposited",
      "type": "event"
    },
    {
      "anonymous": false,
      "inputs": [
        {
          "indexed": false,
          "internalType": "uint256[]",
          "name": "nullifierHashes",
          "type": "uint256[]"
        },
        {
          "indexed": false,
          "internalType": "uint256",
          "name": "mergedCommitment",
          "type": "uint256"
        }
      ],
      "name": "Merged",
      "type": "event"
    },
    {
      "anonymous": false,
      "inputs": [
        {
          "indexed": true,
          "internalType": "address",
          "name": "recipient",
          "type": "address"
        },
        {
          "components": [
            {
              "internalType": "address",
              "name": "pool",
              "type": "address"
            },
            {
              "internalType": "address",
              "name": "srcToken",
              "type": "address"
            },
            {
              "internalType": "address",
              "name": "dstToken",
              "type": "address"
            },
            {
              "internalType": "address payable",
              "name": "recipient",
              "type": "address"
            },
            {
              "internalType": "uint256",
              "name": "amountIn",
              "type": "uint256"
            },
            {
              "internalType": "uint256",
              "name": "minAmountOut",
              "type": "uint256"
            },
            {
              "internalType": "uint24",
              "name": "fee",
              "type": "uint24"
            },
            {
              "internalType": "uint256",
              "name": "deadline",
              "type": "uint256"
            }
          ],
          "indexed": false,
          "internalType": "struct IVault.SwapParam",
          "name": "_param",
          "type": "tuple"
        },
        {
          "indexed": false,
          "internalType": "uint256",
          "name": "_spentNullifier",
          "type": "uint256"
        },
        {
          "indexed": false,
          "internalType": "uint256",
          "name": "_newCommitment",
          "type": "uint256"
        }
      ],
      "name": "Swapped",
      "type": "event"
    },
    {
      "anonymous": false,
      "inputs": [
        {
          "indexed": true,
          "internalType": "address",
          "name": "recipient",
          "type": "address"
        },
        {
          "indexed": false,
          "internalType": "uint256",
          "name": "withdrawnValue",
          "type": "uint256"
        },
        {
          "indexed": false,
          "internalType": "uint256[]",
          "name": "nullifierHashes",
          "type": "uint256[]"
        },
        {
          "indexed": false,
          "internalType": "uint256",
          "name": "changeCommitment",
          "type": "uint256"
        }
      ],
      "name": "Withdrawn",
      "type": "event"
    },
    {
      "inputs": [],
      "name": "asset",
      "outputs": [
        {
          "internalType": "address",
          "name": "",
          "type": "address"
        }
      ],
      "stateMutability": "view",
      "type": "function"
    },
    {
      "inputs": [
        {
          "internalType": "uint256",
          "name": "_amount",
          "type": "uint256"
        },
        {
          "internalType": "uint256",
          "name": "_precommitment",
          "type": "uint256"
        },
        {
          "internalType": "address",
          "name": "_depositor",
          "type": "address"
        }
      ],
      "name": "deposit",
      "outputs": [
        {
          "internalType": "uint256",
          "name": "_commitment",
          "type": "uint256"
        }
      ],
      "stateMutability": "payable",
      "type": "function"
    },
    {
      "inputs": [],
      "name": "entrypoint",
      "outputs": [
        {
          "internalType": "address",
          "name": "",
          "type": "address"
        }
      ],
      "stateMutability": "view",
      "type": "function"
    },
    {
      "inputs": [],
      "name": "getAsset",
      "outputs": [
        {
          "internalType": "address",
          "name": "_asset",
          "type": "address"
        }
      ],
      "stateMutability": "view",
      "type": "function"
    },
    {
      "inputs": [
        {
          "internalType": "uint256",
          "name": "_stateRoot",
          "type": "uint256"
        },
        {
          "internalType": "uint256[]",
          "name": "_nullifierHashes",
          "type": "uint256[]"
        },
        {
          "internalType": "uint256",
          "name": "_mergedCommitment",
          "type": "uint256"
        },
        {
          "internalType": "uint256[2]",
          "name": "_pA",
          "type": "uint256[2]"
        },
        {
          "internalType": "uint256[2][2]",
          "name": "_pB",
          "type": "uint256[2][2]"
        },
        {
          "internalType": "uint256[2]",
          "name": "_pC",
          "type": "uint256[2]"
        }
      ],
      "name": "merge",
      "outputs": [],
      "stateMutability": "nonpayable",
      "type": "function"
    },
    {
      "inputs": [],
      "name": "merkleTree",
      "outputs": [
        {
          "internalType": "contract MerkleTree",
          "name": "",
          "type": "address"
        }
      ],
      "stateMutability": "view",
      "type": "function"
    },
    {
      "inputs": [
        {
          "internalType": "uint256",
          "name": "_nullifier",
          "type": "uint256"
        }
      ],
      "name": "nullifiers",
      "outputs": [
        {
          "internalType": "bool",
          "name": "_spent",
          "type": "bool"
        }
      ],
      "stateMutability": "view",
      "type": "function"
    },
    {
      "inputs": [
        {
          "components": [
            {
              "internalType": "address",
              "name": "pool",
              "type": "address"
            },
            {
              "internalType": "address",
              "name": "srcToken",
              "type": "address"
            },
            {
              "internalType": "address",
              "name": "dstToken",
              "type": "address"
            },
            {
              "internalType": "address payable",
              "name": "recipient",
              "type": "address"
            },
            {
              "internalType": "uint256",
              "name": "amountIn",
              "type": "uint256"
            },
            {
              "internalType": "uint256",
              "name": "minAmountOut",
              "type": "uint256"
            },
            {
              "internalType": "uint24",
              "name": "fee",
              "type": "uint24"
            },
            {
              "internalType": "uint256",
              "name": "deadline",
              "type": "uint256"
            }
          ],
          "internalType": "struct IVault.SwapParam",
          "name": "_param",
          "type": "tuple"
        },
        {
          "internalType": "address",
          "name": "_swapRouter",
          "type": "address"
        },
        {
          "components": [
            {
              "internalType": "uint256",
              "name": "stateRoot",
              "type": "uint256"
            },
            {
              "internalType": "uint256",
              "name": "nullifier",
              "type": "uint256"
            },
            {
              "internalType": "uint256",
              "name": "newCommitment",
              "type": "uint256"
            },
            {
              "internalType": "address",
              "name": "recipient",
              "type": "address"
            },
            {
              "internalType": "address",
              "name": "pool",
              "type": "address"
            },
            {
              "internalType": "address",
              "name": "dstToken",
              "type": "address"
            },
            {
              "internalType": "uint256",
              "name": "fee",
              "type": "uint256"
            },
            {
              "internalType": "uint256",
              "name": "minAmountOut",
              "type": "uint256"
            },
            {
              "internalType": "uint256[2]",
              "name": "pA",
              "type": "uint256[2]"
            },
            {
              "internalType": "uint256[2][2]",
              "name": "pB",
              "type": "uint256[2][2]"
            },
            {
              "internalType": "uint256[2]",
              "name": "pC",
              "type": "uint256[2]"
            }
          ],
          "internalType": "struct IVault.ZKProof",
          "name": "_zkProof",
          "type": "tuple"
        }
      ],
      "name": "swap",
      "outputs": [],
      "stateMutability": "nonpayable",
      "type": "function"
    },
    {
      "inputs": [
        {
          "internalType": "address",
          "name": "_recipient",
          "type": "address"
        },
        {
          "internalType": "uint256",
          "name": "_withdrawnValue",
          "type": "uint256"
        },
        {
          "internalType": "uint256",
          "name": "_stateRoot",
          "type": "uint256"
        },
        {
          "internalType": "uint256[]",
          "name": "_nullifierHashes",
          "type": "uint256[]"
        },
        {
          "internalType": "uint256",
          "name": "_changeCommitment",
          "type": "uint256"
        },
        {
          "internalType": "uint256[2]",
          "name": "_pA",
          "type": "uint256[2]"
        },
        {
          "internalType": "uint256[2][2]",
          "name": "_pB",
          "type": "uint256[2][2]"
        },
        {
          "internalType": "uint256[2]",
          "name": "_pC",
          "type": "uint256[2]"
        }
      ],
      "name": "withdraw",
      "outputs": [],
      "stateMutability": "nonpayable",
      "type": "function"
    }
  ],
  "bytecode": "0x6102406040523461028757612c998038038061001a816102a4565b9283398101906101c08183031261028757610034816102c9565b91610041602083016102c9565b81605f840112156102875761005660c06102a4565b9182936101008101948286116102875760408201905b86821061028c5750508161011f820112156102875761008b60a06102a4565b946101a086920192831161028757905b82821061026f5750506100ad906102c9565b6001600055608094855260a091825282516001600160a01b0390811660c052602080850151821660e052604080860151831661010052606080870151841661012052868901518416610140529590940151821661016052855182166101805285015181166101a0528483015181166101c0529284015183166101e052929093015181166102005216610220525161088a808201906001600160401b0382118383101761025957602091839161240f83393081520301906000f0801561024d57600180546001600160a01b0319166001600160a01b039290921691909117905560405161213190816102de82396080518181816103f501528181610ae00152611cdd015260a05181818161014e01528181610909015281816112ab015281816112f7015261152d015260c05181610a22015260e05181610d1101526101005181610e2c01526101205181610f3a0152610140518161105c015261016051816111a10152610180518161165401526101a051816118bd01526101c051816119e101526101e05181611af801526102005181611c1a0152610220518161031c0152f35b6040513d6000823e3d90fd5b634e487b7160e01b600052604160045260246000fd5b6020809161027c846102c9565b81520191019061009b565b600080fd5b60208091610299846102c9565b81520191019061006c565b6040519190601f01601f191682016001600160401b0381118382101761025957604052565b51906001600160a01b03821682036102875756fe6080604052600436101561001257600080fd5b60003560e01c80631b2a487a146114d957806338d52e0f146114d45780635c222bad146114d45780638dbdbe6d146112da578063a65d69d414611295578063bb7df0521461126c578063ce28f7d7146108a6578063d21e82ab146108755763d308a6561461007f57600080fd5b346106ea57366003190161032081126106ea57610100136106ea576040516100a681611d38565b6100ae611d22565b8152602435906001600160a01b03821682036106ea57602081019182526100d3611d0c565b6040820190815260643591906001600160a01b03831683036106ea576060820192835260808201608435815260a083019360a435855260c43562ffffff811681036106ea5760c0850190815260e085019060e4358252610104359660018060a01b0388168098036106ea57610200366101231901126106ea577f00000000000000000000000000000000000000000000000000000000000000006001600160a01b0316330361086457610184611eaa565b6001546040516376a5cef360e01b815261012435600482018190529691602090829060249082906001600160a01b03165afa9081156106f757600091610845575b50156108345784516001600160a01b03908116906101e1611e65565b16036108235787516001600160a01b03908116906101fd611e7c565b16036108125786516001600160a01b0390811690610219611e93565b16036108125762ffffff835116946101e43580960361081257825197610204358099036108125761012097886040516102528282611dc1565b3690376040519061026282611da5565b84518252602082015261016435998a6040830152610144359889606084015260018060a01b03610290611e65565b1660808401526001600160a01b036102a6611e7c565b1660a08401526001600160a01b036102bc611e93565b1660c084015260e08301526101008201526040805163c542c93b60e01b8152919061022460048401376102f460448301610264611e0a565b60406102e460c4840137600061010483015b600982106107fc575060209150829050610224817f00000000000000000000000000000000000000000000000000000000000000006001600160a01b03165afa9081156106f7576000916107cd575b50156107bc5786600052600260205260ff604060002054166107ab576000878152600260209081526040808320805460ff191660019081179091555490516390b5561d60e01b8152600481018d905292839160249183916001600160a01b03165af180156106f75761077c575b50825160405163095ea7b360e01b602082019081526001600160a01b038e811660248401526044808401949094529282527f0000000000000000000000000000000000000000000000000000000000000000909216918d9190600090819061042b606485611dc1565b83519082875af161043a611fec565b8161074d575b5080610743575b15610703575b50602060018060a01b0384511661010462ffffff8a511693600060018060a01b03895116918d51928b518d51906040519561048787611d38565b8b875289870198895260408088019b8c52606088019485526080880191825260a0880192835260c0880193845260e08801878152905163414bf38960e01b815297516001600160a01b0390811660048a015299518a1660248901529a5162ffffff16604488015292518816606487015291516084860152905160a48501525160c4840152955190931660e482015293849283915af180156106f7576106a2575b50916101409a999897969593917fc77b7ea62b187c443d6bbed0b43932acb286c774df00e60d35c3a0674b0417a49c62ffffff9694604051906000806020840163095ea7b360e01b81528560248601528160448601526044855261058c606486611dc1565b84519082855af161059b611fec565b81610673575b5080610669575b15610623575b50505060018060a01b038251169d6040519b60018060a01b039051168c5260018060a01b0390511660208c015260018060a01b0390511660408b015260018060a01b0390511660608a01525160808901525160a0880152511660c08601525160e0850152610100840152820152a26001600055005b61065c610661936040519063095ea7b360e01b602083015260248201526000604482015260448152610656606482611dc1565b82611f00565b611f00565b3880806105ae565b50803b15156105a8565b8051801592508215610688575b5050386105a1565b61069b9250602080918301019101611de2565b3880610680565b9492909a999897969593916020863d6020116106ef575b816106c660209383611dc1565b810103126106ea57999a989997989697959693959294509092909190610140610527565b600080fd5b3d91506106b9565b6040513d6000823e3d90fd5b61065661073c926040519063095ea7b360e01b602083015260248201526000604482015260448152610736606482611dc1565b84611f00565b8b3861044d565b50823b1515610447565b8051801592508215610762575b505038610440565b6107759250602080918301019101611de2565b388061075a565b6020813d6020116107a3575b8161079560209383611dc1565b810103126106ea57516103c2565b3d9150610788565b63b115d85760e01b60005260046000fd5b6303b2487b60e11b60005260046000fd5b6107ef915060203d6020116107f5575b6107e78183611dc1565b810190611de2565b38610355565b503d6107dd565b6020806001928551815201930191019091610306565b635037072d60e01b60005260046000fd5b634e46966960e11b60005260046000fd5b630b6fac0360e41b60005260046000fd5b61085e915060203d6020116107f5576107e78183611dc1565b386101c5565b6301048f7b60e71b60005260046000fd5b346106ea5760203660031901126106ea576004356000526002602052602060ff604060002054166040519015158152f35b346106ea576101a03660031901126106ea576108c0611d22565b604435906024356064356001600160401b0381116106ea576108e6903690600401611c97565b919092608435903660e4116106ea5736610164116106ea57366101a4116106ea577f00000000000000000000000000000000000000000000000000000000000000006001600160a01b031633036108645761093f611eaa565b831595868015611262575b611251578315611240576001546040516376a5cef360e01b81526004810183905290602090829060249082906001600160a01b03165afa9081156106f757600091611221575b5015610834576001600160a01b0382169660018603610c7d57604051916109b683611d8a565b8583526020830152836040830152610c675785356060820152866080820152604051906334baeab960e01b8252604060a460048401376109fa6044830160e4611e0a565b604061016460c4840137600061010483015b60058210610c515750602091508290506101a4817f00000000000000000000000000000000000000000000000000000000000000006001600160a01b03165afa9081156106f757600091610c32575b505b156107bc5760005b848110610c09575060005b848110610bdd575081610b36575b60405163a9059cbb60e01b60208201526001600160a01b03919091166024820152604480820184905281527ff3dee028455024d57aff7b13da341b8712ae2ae561b33aca90f958a763265c9b94610b2691610b0d90610ade606482611dc1565b7f00000000000000000000000000000000000000000000000000000000000000006001600160a01b0316611f00565b6040519485948552606060208601526060850191611e41565b9060408301520390a26001600055005b6001546040516390b5561d60e01b8152600481018490529590602090879060249082906000906001600160a01b03165af19182156106f75784610ade610b0d927ff3dee028455024d57aff7b13da341b8712ae2ae561b33aca90f958a763265c9b99610b2696610bae575b5094505050509450610a7e565b610bcf9060203d602011610bd6575b610bc78183611dc1565b810190611e32565b508b610ba1565b503d610bbd565b80610beb6001928789611dfa565b35600052600260205260406000208260ff1982541617905501610a70565b610c14818688611dfa565b35600052600260205260ff604060002054166107ab57600101610a65565b610c4b915060203d6020116107f5576107e78183611dc1565b87610a5b565b6020806001928551815201930191019091610a0c565b634e487b7160e01b600052603260045260246000fd5b60028603610d855760405191610c9283611d6f565b8583526020830152836040830152610c6757853560608201528460011015610c6757602086013560808201528660a08201526040519063f398789b60e01b8252604060a46004840137610ce96044830160e4611e0a565b604061016460c4840137600061010483015b60068210610d6f5750602091508290506101c4817f00000000000000000000000000000000000000000000000000000000000000006001600160a01b03165afa9081156106f757600091610d50575b50610a5d565b610d69915060203d6020116107f5576107e78183611dc1565b87610d4a565b6020806001928551815201930191019091610cfb565b60038603610e805760405191610d9a83611d54565b8583526020830152836040830152610c6757853560608201528460011015610c6757602086013560808201528460021015610c6757604086013560a08201528660c08201526040519063c894e75760e01b8252604060a46004840137610e046044830160e4611e0a565b604061016460c4840137600061010483015b60078210610e6a5750602091508290506101e4817f00000000000000000000000000000000000000000000000000000000000000006001600160a01b03165afa9081156106f757600091610d505750610a5d565b6020806001928551815201930191019091610e16565b60048603610f8e5760405191610e9583611d38565b8583526020830152836040830152610c6757853560608201528460011015610c6757602086013560808201528460021015610c6757604086013560a08201528460031015610c6757606086013560c08201528660e082015260405190636490cd3d60e11b8252604060a46004840137610f126044830160e4611e0a565b604061016460c4840137600061010483015b60088210610f78575060209150829050610204817f00000000000000000000000000000000000000000000000000000000000000006001600160a01b03165afa9081156106f757600091610d505750610a5d565b6020806001928551815201930191019091610f24565b600586036110b05760405191610fa383611da5565b8583526020830152836040830152610c6757853560608201528460011015610c6757602086013560808201528460021015610c6757604086013560a08201528460031015610c6757606086013560c08201528460041015610c6757608086013560e0820152866101008201526040519063c542c93b60e01b8252604060a460048401376110346044830160e4611e0a565b604061016460c4840137600061010483015b6009821061109a575060209150829050610224817f00000000000000000000000000000000000000000000000000000000000000006001600160a01b03165afa9081156106f757600091610d505750610a5d565b6020806001928551815201930191019091611046565b6040519161014083018381106001600160401b0382111761120b576040528583526020830152836040830152610c6757853560608201528460011015610c6757602086013560808201528460021015610c6757604086013560a08201528460031015610c6757606086013560c08201528460041015610c6757608086013560e08201528460051015610c675760a086013561010082015286610120820152604051906379ddb87b60e11b8252604060a4600484013760e46000604484015b600282106111f557505050604061016460c4840137600061010483015b600a82106111df575060209150829050610244817f00000000000000000000000000000000000000000000000000000000000000006001600160a01b03165afa9081156106f757600091610d505750610a5d565b602080600192855181520193019101909161118b565b604080828186600195370193019101909161116e565b634e487b7160e01b600052604160045260246000fd5b61123a915060203d6020116107f5576107e78183611dc1565b88610990565b639abc749160e01b60005260046000fd5b630967f00b60e21b60005260046000fd5b506006851161094a565b346106ea5760003660031901126106ea576001546040516001600160a01b039091168152602090f35b346106ea5760003660031901126106ea576040517f00000000000000000000000000000000000000000000000000000000000000006001600160a01b03168152602090f35b60603660031901126106ea576024356004356112f4611d0c565b907f00000000000000000000000000000000000000000000000000000000000000006001600160a01b031633036108645761132d611eaa565b80156114c35760405191604083018381106001600160401b0382111761120b5760409081528284526020840185905251632b0aac7f60e11b8152926000600485015b600282106114ad5750505060208360448173__$75f79a42d9bcbdbb69ad79ebd80f556f39$__5af49283156106f757600093611476575b506001546040516390b5561d60e01b81526004810185905290602090829060249082906000906001600160a01b03165af180156106f757611447575b50346114365760607f91ede45f04a37a7c170f5c1207df3b6bc748dc1e04ad5e917a241d0f52feada3916020956040519485528587860152604085015260018060a01b031692a26001600055604051908152f35b6323c6a28760e21b60005260046000fd5b6020813d60201161146e575b8161146060209383611dc1565b810103126106ea57516113e2565b3d9150611453565b90926020823d6020116114a5575b8161149160209383611dc1565b810103126114a257505191846113a6565b80fd5b3d9150611484565b602080600192855181520193019101909161136f565b63fe9ba5cd60e01b60005260046000fd5b611cc7565b346106ea576101603660031901126106ea576004356024356001600160401b0381116106ea5761150d903690600401611c97565b604435923660a4116106ea5736610124116106ea5736610164116106ea577f00000000000000000000000000000000000000000000000000000000000000006001600160a01b0316330361086457611563611eaa565b600282108015611c8d575b611251576001546040516376a5cef360e01b81526004810183905290602090829060249082906001600160a01b03165afa9081156106f757600091611c6e575b501561083457600282036118215760405190608082018281106001600160401b0382111761120b5760405281528360208201528115610c6757823560408201528160011015610c67576020830135606082015260408051635fe8c13b60e01b815291906064600484013760a46000604484015b6002821061180b57505050604061012460c4840137600061010483015b600482106117f5575060209150829050610184817f00000000000000000000000000000000000000000000000000000000000000006001600160a01b03165afa9081156106f7576000916117d6575b505b156107bc5760005b8181106117ad575060005b81811061178157506001546040516390b5561d60e01b8152600481018590529390602090859060249082906000906001600160a01b03165af180156106f757611730575b7f0c834fb4dca660c7c0016cf0716f341c5bd26cd91f18223279e15942b2fe0cda9350611720604051938493604085526040850191611e41565b9060208301520390a16001600055005b6020843d602011611779575b8161174960209383611dc1565b810103126106ea577f0c834fb4dca660c7c0016cf0716f341c5bd26cd91f18223279e15942b2fe0cda93506116e6565b3d915061173c565b8061178f6001928486611dfa565b35600052600260205260406000208260ff19825416179055016116a2565b6117b8818385611dfa565b35600052600260205260ff604060002054166107ab57600101611697565b6117ef915060203d6020116107f5576107e78183611dc1565b8461168d565b602080600192855181520193019101909161163e565b6040808281866001953701930191019091611621565b60038203611931576040519061183682611d8a565b81528360208201528115610c6757823560408201528160011015610c6757602083013560608201528160021015610c6757604083810135608083015280516334baeab960e01b81529190606460048401376118956044830160a4611e0a565b604061012460c4840137600061010483015b6005821061191b5750602091508290506101a4817f00000000000000000000000000000000000000000000000000000000000000006001600160a01b03165afa9081156106f7576000916118fc575b5061168f565b611915915060203d6020116107f5576107e78183611dc1565b846118f6565b60208060019285518152019301910190916118a7565b60048203611a35576040519061194682611d6f565b81528360208201528115610c6757823560408201528160011015610c6757602083013560608201528160021015610c6757604083013560808201528160031015610c6757606083013560a08201526040805163f398789b60e01b81529190606460048401376119b96044830160a4611e0a565b604061012460c4840137600061010483015b60068210611a1f5750602091508290506101c4817f00000000000000000000000000000000000000000000000000000000000000006001600160a01b03165afa9081156106f7576000916118fc575061168f565b60208060019285518152019301910190916119cb565b60058203611b4c5760405190611a4a82611d54565b81528360208201528115610c6757823560408201528160011015610c6757602083013560608201528160021015610c6757604083013560808201528160031015610c6757606083013560a08201528160041015610c6757608083013560c08201526040805163c894e75760e01b8152919060646004840137611ad06044830160a4611e0a565b604061012460c4840137600061010483015b60078210611b365750602091508290506101e4817f00000000000000000000000000000000000000000000000000000000000000006001600160a01b03165afa9081156106f7576000916118fc575061168f565b6020806001928551815201930191019091611ae2565b60405190611b5982611d38565b81528360208201528115610c6757823560408201528160011015610c6757602083013560608201528160021015610c6757604083013560808201528160031015610c6757606083013560a08201528160041015610c6757608083013560c08201528160051015610c675760a083013560e082015260408051636490cd3d60e11b8152919060646004840137611bf26044830160a4611e0a565b604061012460c4840137600061010483015b60088210611c58575060209150829050610204817f00000000000000000000000000000000000000000000000000000000000000006001600160a01b03165afa9081156106f7576000916118fc575061168f565b6020806001928551815201930191019091611c04565b611c87915060203d6020116107f5576107e78183611dc1565b856115ae565b506006821161156e565b9181601f840112156106ea578235916001600160401b0383116106ea576020808501948460051b0101116106ea57565b346106ea5760003660031901126106ea576040517f00000000000000000000000000000000000000000000000000000000000000006001600160a01b03168152602090f35b604435906001600160a01b03821682036106ea57565b600435906001600160a01b03821682036106ea57565b61010081019081106001600160401b0382111761120b57604052565b60e081019081106001600160401b0382111761120b57604052565b60c081019081106001600160401b0382111761120b57604052565b60a081019081106001600160401b0382111761120b57604052565b61012081019081106001600160401b0382111761120b57604052565b90601f801991011681019081106001600160401b0382111761120b57604052565b908160209103126106ea575180151581036106ea5790565b9190811015610c675760051b0190565b906000905b60028210611e1c57505050565b6040808281866001953701930191019091611e0f565b908160209103126106ea575190565b81835290916001600160fb1b0383116106ea5760209260051b809284830137010190565b610184356001600160a01b03811681036106ea5790565b6101a4356001600160a01b03811681036106ea5790565b6101c4356001600160a01b03811681036106ea5790565b600260005414611ebb576002600055565b60405162461bcd60e51b815260206004820152601f60248201527f5265656e7472616e637947756172643a207265656e7472616e742063616c6c006044820152606490fd5b604080519092611f65926001600160a01b0316906000908190611f238786611dc1565b602085527f5361666545524332303a206c6f772d6c6576656c2063616c6c206661696c6564602086015260208151910182855af1611f5f611fec565b9161202b565b8051908115918215611fd2575b505015611f7c5750565b5162461bcd60e51b815260206004820152602a60248201527f5361666545524332303a204552433230206f7065726174696f6e20646964206e6044820152691bdd081cdd58d8d9595960b21b6064820152608490fd5b611fe59250602080918301019101611de2565b3880611f72565b3d15612026573d906001600160401b03821161120b576040519161201a601f8201601f191660200184611dc1565b82523d6000602084013e565b606090565b9192901561208d575081511561203f575090565b3b156120485790565b60405162461bcd60e51b815260206004820152601d60248201527f416464726573733a2063616c6c20746f206e6f6e2d636f6e74726163740000006044820152606490fd5b8251909150156120a05750805190602001fd5b6040519062461bcd60e51b8252602060048301528181519182602483015260005b8381106120e35750508160006044809484010152601f80199101168101030190fd5b602082820181015160448784010152859350016120c156fea26469706673582212206bc895b295ca311f2e8d6ea17e35d65a7ca41c9bb7934599cec0a01166a9fb9064736f6c634300081c003360a080604052346101cf5760208161088a803803809161001f82856101d4565b8339810103126101cf57516001600160a01b03811681036101cf5760805260008073__$75f79a42d9bcbdbb69ad79ebd80f556f39$__5b602063ffffffff8316106100bf577f22157c206018468b45ae7922bc7a0b0cb8feed201dac3c6fb5e7876aa94e11e983905560008381526042602052604090819020805460ff191660011790555161067c908161020e823960805181818160cf01526101e70152f35b909160208310156101b9576020830181905580835560408051600092909182016001600160401b038111838210176101a557604052808252602082015260405190632b0aac7f60e11b82526004820183905b6002821061018e57505050602081604481865af4918215610182578092610146575b5050600163ffffffff9193011690610056565b9091506020823d821161017a575b81610161602093836101d4565b81010312610177575051600163ffffffff610133565b80fd5b3d9150610154565b604051903d90823e3d90fd5b825181526020928301926001929092019101610111565b634e487b7160e01b84526041600452602484fd5b634e487b7160e01b600052603260045260246000fd5b600080fd5b601f909101601f19168101906001600160401b038211908210176101f757604052565b634e487b7160e01b600052604160045260246000fdfe608080604052600436101561001357600080fd5b60003560e01c908163081dc6811461056d5750806312ad73811461053c578063367506ef146101925780635ca1e1651461050d57806376a5cef3146104e557806390b5561d146101d157806390eeb02b146101ad578063949d225d14610157578063a27154ba14610192578063cd87a3b414610175578063de8fa43114610157578063e82955881461012c578063f178e47c146101035763fbfa77cf146100b957600080fd5b346100fe5760003660031901126100fe576040517f00000000000000000000000000000000000000000000000000000000000000006001600160a01b03168152602090f35b600080fd5b346100fe5760203660031901126100fe5760043560208110156100fe5760209054604051908152f35b346100fe5760203660031901126100fe5760043560208110156100fe57602090810154604051908152f35b346100fe5760003660031901126100fe576020604054604051908152f35b346100fe5760003660031901126100fe5760206040516101008152f35b346100fe5760003660031901126100fe576020604051818152f35b346100fe5760003660031901126100fe57602063ffffffff60435416604051908152f35b346100fe5760203660031901126100fe576004357f00000000000000000000000000000000000000000000000000000000000000006001600160a01b031633036104d4576040546401000000008110156104c35780829160005b602063ffffffff8216106103255750506001810180821161030f5760405560435463ffffffff81169163ffffffff831461030f5760209460ff60609360017fcb249c8292372bd11f567786635483fca9e635030baafca55ff1a8940141d22196019063ffffffff82169063ffffffff191617604355168060005260418752604060002054806102f5575b50600052604186528460406000205584600052604286526040600020600160ff1982541617905560405191825285820152836040820152a1604051908152f35b60005260428752604060002060ff198154169055876102b5565b634e487b7160e01b600052601160045260246000fd5b90926001841661040f5760208210156103f95780825560405190610348826105c4565b81526103746020600092848201548282015260405180938192632b0aac7f60e11b835260048301610618565b038173__$75f79a42d9bcbdbb69ad79ebd80f556f39$__5af49182156103ed5780926103b1575b5050600163ffffffff91945b811c92011661022b565b9091506020823d82116103e5575b816103cc602093836105f6565b810103126103e2575051600163ffffffff61039b565b80fd5b3d91506103bf565b604051903d90823e3d90fd5b634e487b7160e01b600052603260045260246000fd5b6040519061041c826105c4565b60208310156103f95761044e91602091845482528282015260405180938192632b0aac7f60e11b835260048301610618565b038173__$75f79a42d9bcbdbb69ad79ebd80f556f39$__5af49081156104b757600091610485575b50600163ffffffff91946103a7565b906020823d82116104af575b8161049e602093836105f6565b810103126103e25750516001610476565b3d9150610491565b6040513d6000823e3d90fd5b633977650160e01b60005260046000fd5b638d1af8bd60e01b60005260046000fd5b346100fe5760203660031901126100fe5760206105036004356105a4565b6040519015158152f35b346100fe5760003660031901126100fe5760ff6043541660005260416020526020604060002054604051908152f35b346100fe5760203660031901126100fe576004356000526042602052602060ff604060002054166040519015158152f35b346100fe5760203660031901126100fe576004359063ffffffff82168092036100fe57602091600052604182526040600020548152f35b80156105be57600052604260205260ff6040600020541690565b50600090565b6040810190811067ffffffffffffffff8211176105e057604052565b634e487b7160e01b600052604160045260246000fd5b90601f8019910116810190811067ffffffffffffffff8211176105e057604052565b919060408301926000905b6002821061063057505050565b602080600192855181520193019101909161062356fea2646970667358221220ec697c3cd688a1fa9c2bb456ecd87255f0e772fe9d28ebe804a44c2bd8c9064764736f6c634300081c0033",
  "linkReferences": {
    "poseidon-solidity/PoseidonT3.sol": {
      "PoseidonT3": [
        {
          "length": 20,
          "start": 5728
        },
        {
          "length": 20,
          "start": 9297
        },
        {
          "length": 20,
          "start": 10645
        },
        {
          "length": 20,
          "start": 10863
        }
      ]
    }
  },
  "deployedLinkReferences": {
    "poseidon-solidity/PoseidonT3.sol": {
      "PoseidonT3": [
        {
          "length": 20,
          "start": 4994
        }
      ]
    }
  }
}