{
  "_format": "hh-sol-artifact-1",
  "contractName": "Entrypoint",
  "sourceName": "src/Entrypoint.sol",
  "abi": [
    {
      "inputs": [
        {
          "internalType": "address",
          "name": "_owner",
          "type": "address"
        },
        {
          "internalType": "address",
          "name": "_swapRouterAddress",
          "type": "address"
        },
        {
          "internalType": "address",
          "name": "_weth",
          "type": "address"
        },
        {
          "internalType": "address",
          "name": "_nativeVaultFactory",
          "type": "address"
        },
        {
          "internalType": "address",
          "name": "_alternativeVaultFactory",
          "type": "address"
        },
        {
          "internalType": "address[6]",
          "name": "_withdrawalVerifiers",
          "type": "address[6]"
        },
        {
          "internalType": "address[5]",
          "name": "_mergeVerifiers",
          "type": "address[5]"
        },
        {
          "internalType": "address",
          "name": "_swapVerifier",
          "type": "address"
        }
      ],
      "stateMutability": "nonpayable",
      "type": "constructor"
    },
    {
      "inputs": [],
      "name": "ContractPaused",
      "type": "error"
    },
    {
      "inputs": [],
      "name": "ExpiredDeadline",
      "type": "error"
    },
    {
      "inputs": [],
      "name": "InvalidDepositAmount",
      "type": "error"
    },
    {
      "inputs": [],
      "name": "InvalidFeeAmount",
      "type": "error"
    },
    {
      "inputs": [],
      "name": "InvalidSwapAmount",
      "type": "error"
    },
    {
      "inputs": [],
      "name": "InvalidWithdrawalAmount",
      "type": "error"
    },
    {
      "inputs": [],
      "name": "VaultAlreadyRegistered",
      "type": "error"
    },
    {
      "inputs": [],
      "name": "VaultNotFound",
      "type": "error"
    },
    {
      "inputs": [],
      "name": "ZeroAddress",
      "type": "error"
    },
    {
      "anonymous": false,
      "inputs": [
        {
          "indexed": true,
          "internalType": "address",
          "name": "previousOwner",
          "type": "address"
        },
        {
          "indexed": true,
          "internalType": "address",
          "name": "newOwner",
          "type": "address"
        }
      ],
      "name": "OwnershipTransferStarted",
      "type": "event"
    },
    {
      "anonymous": false,
      "inputs": [
        {
          "indexed": true,
          "internalType": "address",
          "name": "previousOwner",
          "type": "address"
        },
        {
          "indexed": true,
          "internalType": "address",
          "name": "newOwner",
          "type": "address"
        }
      ],
      "name": "OwnershipTransferred",
      "type": "event"
    },
    {
      "anonymous": false,
      "inputs": [
        {
          "indexed": false,
          "internalType": "bool",
          "name": "paused",
          "type": "bool"
        }
      ],
      "name": "PausedSet",
      "type": "event"
    },
    {
      "inputs": [],
      "name": "NATIVE_ASSET",
      "outputs": [
        {
          "internalType": "address",
          "name": "",
          "type": "address"
        }
      ],
      "stateMutability": "view",
      "type": "function"
    },
    {
      "inputs": [],
      "name": "WETH",
      "outputs": [
        {
          "internalType": "address",
          "name": "",
          "type": "address"
        }
      ],
      "stateMutability": "view",
      "type": "function"
    },
    {
      "inputs": [],
      "name": "acceptOwnership",
      "outputs": [],
      "stateMutability": "nonpayable",
      "type": "function"
    },
    {
      "inputs": [],
      "name": "alternativeVaultFactory",
      "outputs": [
        {
          "internalType": "contract IAlternativeVaultFactory",
          "name": "",
          "type": "address"
        }
      ],
      "stateMutability": "view",
      "type": "function"
    },
    {
      "inputs": [
        {
          "internalType": "address",
          "name": "_asset",
          "type": "address"
        },
        {
          "internalType": "uint256",
          "name": "_amount",
          "type": "uint256"
        },
        {
          "internalType": "uint256",
          "name": "_precommitment",
          "type": "uint256"
        }
      ],
      "name": "deposit",
      "outputs": [
        {
          "internalType": "uint256",
          "name": "_commitment",
          "type": "uint256"
        }
      ],
      "stateMutability": "payable",
      "type": "function"
    },
    {
      "inputs": [
        {
          "internalType": "address",
          "name": "asset",
          "type": "address"
        }
      ],
      "name": "getVault",
      "outputs": [
        {
          "internalType": "address",
          "name": "",
          "type": "address"
        }
      ],
      "stateMutability": "view",
      "type": "function"
    },
    {
      "inputs": [
        {
          "internalType": "address[]",
          "name": "assets",
          "type": "address[]"
        }
      ],
      "name": "initializeVaults",
      "outputs": [],
      "stateMutability": "nonpayable",
      "type": "function"
    },
    {
      "inputs": [
        {
          "internalType": "address",
          "name": "_asset",
          "type": "address"
        },
        {
          "internalType": "uint256",
          "name": "_stateRoot",
          "type": "uint256"
        },
        {
          "internalType": "uint256[]",
          "name": "_nullifierHashes",
          "type": "uint256[]"
        },
        {
          "internalType": "uint256",
          "name": "_mergedCommitment",
          "type": "uint256"
        },
        {
          "internalType": "uint256[2]",
          "name": "_pA",
          "type": "uint256[2]"
        },
        {
          "internalType": "uint256[2][2]",
          "name": "_pB",
          "type": "uint256[2][2]"
        },
        {
          "internalType": "uint256[2]",
          "name": "_pC",
          "type": "uint256[2]"
        }
      ],
      "name": "merge",
      "outputs": [],
      "stateMutability": "nonpayable",
      "type": "function"
    },
    {
      "inputs": [],
      "name": "nativeVaultFactory",
      "outputs": [
        {
          "internalType": "contract INativeVaultFactory",
          "name": "",
          "type": "address"
        }
      ],
      "stateMutability": "view",
      "type": "function"
    },
    {
      "inputs": [],
      "name": "owner",
      "outputs": [
        {
          "internalType": "address",
          "name": "",
          "type": "address"
        }
      ],
      "stateMutability": "view",
      "type": "function"
    },
    {
      "inputs": [],
      "name": "paused",
      "outputs": [
        {
          "internalType": "bool",
          "name": "",
          "type": "bool"
        }
      ],
      "stateMutability": "view",
      "type": "function"
    },
    {
      "inputs": [],
      "name": "pendingOwner",
      "outputs": [
        {
          "internalType": "address",
          "name": "",
          "type": "address"
        }
      ],
      "stateMutability": "view",
      "type": "function"
    },
    {
      "inputs": [
        {
          "internalType": "bool",
          "name": "_paused",
          "type": "bool"
        }
      ],
      "name": "setPaused",
      "outputs": [],
      "stateMutability": "nonpayable",
      "type": "function"
    },
    {
      "inputs": [
        {
          "internalType": "address",
          "name": "_pool",
          "type": "address"
        },
        {
          "internalType": "address",
          "name": "_srcToken",
          "type": "address"
        },
        {
          "internalType": "address",
          "name": "_dstToken",
          "type": "address"
        },
        {
          "internalType": "address payable",
          "name": "_recipient",
          "type": "address"
        },
        {
          "internalType": "uint256",
          "name": "_amountIn",
          "type": "uint256"
        },
        {
          "internalType": "uint256",
          "name": "_minAmountOut",
          "type": "uint256"
        },
        {
          "internalType": "uint24",
          "name": "_fee",
          "type": "uint24"
        },
        {
          "internalType": "uint256",
          "name": "_deadline",
          "type": "uint256"
        },
        {
          "components": [
            {
              "internalType": "uint256",
              "name": "stateRoot",
              "type": "uint256"
            },
            {
              "internalType": "uint256",
              "name": "nullifier",
              "type": "uint256"
            },
            {
              "internalType": "uint256",
              "name": "newCommitment",
              "type": "uint256"
            },
            {
              "internalType": "address",
              "name": "recipient",
              "type": "address"
            },
            {
              "internalType": "address",
              "name": "pool",
              "type": "address"
            },
            {
              "internalType": "address",
              "name": "dstToken",
              "type": "address"
            },
            {
              "internalType": "uint256",
              "name": "fee",
              "type": "uint256"
            },
            {
              "internalType": "uint256",
              "name": "minAmountOut",
              "type": "uint256"
            },
            {
              "internalType": "uint256[2]",
              "name": "pA",
              "type": "uint256[2]"
            },
            {
              "internalType": "uint256[2][2]",
              "name": "pB",
              "type": "uint256[2][2]"
            },
            {
              "internalType": "uint256[2]",
              "name": "pC",
              "type": "uint256[2]"
            }
          ],
          "internalType": "struct IVault.ZKProof",
          "name": "_zkProof",
          "type": "tuple"
        }
      ],
      "name": "swap",
      "outputs": [],
      "stateMutability": "nonpayable",
      "type": "function"
    },
    {
      "inputs": [],
      "name": "swapRouter",
      "outputs": [
        {
          "internalType": "address",
          "name": "",
          "type": "address"
        }
      ],
      "stateMutability": "view",
      "type": "function"
    },
    {
      "inputs": [
        {
          "internalType": "address",
          "name": "_newOwner",
          "type": "address"
        }
      ],
      "name": "transferOwnership",
      "outputs": [],
      "stateMutability": "nonpayable",
      "type": "function"
    },
    {
      "inputs": [
        {
          "internalType": "address",
          "name": "_asset",
          "type": "address"
        },
        {
          "internalType": "address",
          "name": "_recipient",
          "type": "address"
        },
        {
          "internalType": "uint256",
          "name": "_withdrawnValue",
          "type": "uint256"
        },
        {
          "internalType": "uint256",
          "name": "_stateRoot",
          "type": "uint256"
        },
        {
          "internalType": "uint256[]",
          "name": "_nullifierHashes",
          "type": "uint256[]"
        },
        {
          "internalType": "uint256",
          "name": "_changeCommitment",
          "type": "uint256"
        },
        {
          "internalType": "uint256[2]",
          "name": "_pA",
          "type": "uint256[2]"
        },
        {
          "internalType": "uint256[2][2]",
          "name": "_pB",
          "type": "uint256[2][2]"
        },
        {
          "internalType": "uint256[2]",
          "name": "_pC",
          "type": "uint256[2]"
        }
      ],
      "name": "withdraw",
      "outputs": [],
      "stateMutability": "nonpayable",
      "type": "function"
    }
  ],
  "bytecode": "0x610100604052346102fd5761186d8038038061001a8161031a565b9283398101610220828203126102fd5761003382610355565b61003f60208401610355565b9161004c60408501610355565b9361005960608201610355565b9061006660808201610355565b928060bf830112156102fd5761007c60c061031a565b9081926101608101938285116102fd5760a08201905b8582106103025750508161017f820112156102fd576100b160a061031a565b936102008592019283116102fd57905b8282106102e55750506100d390610355565b6001600055926001600160a01b038816156102b1576001600160a01b031693841561026c576001600160a01b031694851561021d576001600160a01b0381166102185750335b600280546001600160a01b0319166001600160a01b039290921691909117905560005b600681106101fa57505060005b600581106101dc575050600f80546001600160a01b0319166001600160a01b039290921691909117905560a05260c05260e052608052604051611503908161036a823960805181818161024f015281816106040152818161062d01526109fd015260a05181818161038d0152610a33015260c0518181816101960152610b21015260e0518181816101db01526107220152f35b81516001600160a01b0316600a820155602090910190600101610149565b81516001600160a01b0316600482015560209091019060010161013c565b610119565b60405162461bcd60e51b815260206004820152602160248201527f496e76616c696420616c7465726e6174697665207661756c7420666163746f726044820152607960f81b6064820152608490fd5b60405162461bcd60e51b815260206004820152601c60248201527f496e76616c6964206e6174697665207661756c7420666163746f7279000000006044820152606490fd5b60405162461bcd60e51b815260206004820152600c60248201526b092dcecc2d8d2c840ae8aa8960a31b6044820152606490fd5b602080916102f284610355565b8152019101906100c1565b600080fd5b6020809161030f84610355565b815201910190610092565b6040519190601f01601f191682016001600160401b0381118382101761033f57604052565b634e487b7160e01b600052604160045260246000fd5b51906001600160a01b03821682036102fd5756fe608080604052600436101561001357600080fd5b600090813560e01c90816302032f77146110e3575080630eb9af38146110a25780630efe6a8b14610c7357806316c38b3c14610bf85780633749a2ac146108c75780633a8e9c4914610510578063520fd790146103bc578063587e052e146103775780635c975abb1461035157806379ba5097146102a75780638da5cb5b1461027e578063ad5c464814610239578063bf53253b1461020a578063c31c9c07146101c5578063d17517b614610180578063e30c3978146101575763f2fde38b146100dc57600080fd5b34610154576020366003190112610154576100f5611284565b6002546001600160a01b03169061010d33831461133d565b600380546001600160a01b0319166001600160a01b03929092169182179055907f38d16b8cac22d99fc7c124b9cd0de2d3fa1faef420bfe791d8c362d765e227008380a380f35b80fd5b50346101545780600319360112610154576003546040516001600160a01b039091168152602090f35b50346101545780600319360112610154576040517f00000000000000000000000000000000000000000000000000000000000000006001600160a01b03168152602090f35b50346101545780600319360112610154576040517f00000000000000000000000000000000000000000000000000000000000000006001600160a01b03168152602090f35b5034610154578060031936011261015457602060405173eeeeeeeeeeeeeeeeeeeeeeeeeeeeeeeeeeeeeeee8152f35b50346101545780600319360112610154576040517f00000000000000000000000000000000000000000000000000000000000000006001600160a01b03168152602090f35b50346101545780600319360112610154576002546040516001600160a01b039091168152602090f35b50346101545780600319360112610154576003546001600160a01b038116903382900361031857600280546001600160a01b0319808216851790925591166003556001600160a01b03167f8be0079c531659141344cd1fd0a4f28419497f9722a3daafe3b4186f6b6457e08380a380f35b60405162461bcd60e51b81526020600482015260116024820152702737ba103832b73234b7339037bbb732b960791b6044820152606490fd5b5034610154578060031936011261015457602060ff60035460a01c166040519015158152f35b50346101545780600319360112610154576040517f00000000000000000000000000000000000000000000000000000000000000006001600160a01b03168152602090f35b503461015457610180366003190112610154576103d7611284565b9060443567ffffffffffffffff811161050c576103f89036906004016112b0565b90923660c4116104f95736610144116104f95736610184116104f9576001600160a01b0390811680845260016020526040842054909116156104fd578252600160205260408220546001600160a01b031692833b156104f95761047e9060405192630d95243d60e11b845260243560048501526101606024850152610164840191611319565b92606435604483015260406084606484013760c4938360a484015b600282106104e3578580868181888183818b604061014461012484013703925af180156104d8576104c75750f35b816104d1916112e1565b6101545780f35b6040513d84823e3d90fd5b60408082818a6001953701970191019095610499565b8280fd5b63dee790fb60e01b8352600483fd5b5080fd5b5034610154576103003660031901126101545761052b611284565b9061053461129a565b6044356001600160a01b03811693919291908481036104f9576064356001600160a01b03811694908590036108c3576084359060c4359162ffffff83168093036108bf5760e43593610200366101031901126108bb5760ff60035460a01c166108ac576001600160a01b0383811680895260016020526040892054909491161561089d57821561088e578415610880578815610871574286106108625773eeeeeeeeeeeeeeeeeeeeeeeeeeeeeeeeeeeeeeee8403610846575073eeeeeeeeeeeeeeeeeeeeeeeeeeeeeeeeeeeeeeee7f0000000000000000000000000000000000000000000000000000000000000000995b0361084057507f0000000000000000000000000000000000000000000000000000000000000000965b60405195610100870187811067ffffffffffffffff82111761082c5760409081526001600160a01b0391821688529981166020808901918252998216888c01908152606089019384526080890194855260a43560a08a0190815260c08a0197885260e08a01988952958a526001909a52998820541697883b1561082857604051636984532b60e11b815296516001600160a01b03908116600489015299518a166024880152518916604487015251881660648601525160848501525160a48401525162ffffff1660c48301525160e48201527f00000000000000000000000000000000000000000000000000000000000000008416610104808301919091523561012480830191909152356101448083019190915235610164808301919091529293919290919035908116908190036104f9576101848201526101843560018060a01b0381168091036104f9576101a48201526101a43560018060a01b0381168091036104f9576101c48201526101c4356101e48201526101e43561020482015260406102046102248301376102448261026483015b600282106108125750505081816103248183809760406102c46102e48501375af180156104d8576104c75750f35b60408082818660019537019301910190916107e4565b8780fd5b634e487b7160e01b89526041600452602489fd5b9661064e565b73eeeeeeeeeeeeeeeeeeeeeeeeeeeeeeeeeeeeeeee9099610625565b63f87d927160e01b8852600488fd5b63d92e233d60e01b8852600488fd5b62a4671960e71b8852600488fd5b63e346d81d60e01b8852600488fd5b63dee790fb60e01b8852600488fd5b63ab35696f60e01b8752600487fd5b8680fd5b8580fd5b8380fd5b50346101545760203660031901126101545760043567ffffffffffffffff811161050c573660238201121561050c5780600401359067ffffffffffffffff8211610be4578160051b906040519261092160208401856112e1565b83526024602084019282010190368211610be057602401915b818310610bc05750505061095960018060a01b0360025416331461133d565b815b8151811015610bbc576020600582901b83018101516001600160a01b039081168086526001909252604085205491929116610b805773eeeeeeeeeeeeeeeeeeeeeeeeeeeeeeeeeeeeeeee8203610acf57600f54604051633451144960e21b8152600481018490526024810184905292906001600160a01b03166109e060448501611395565b6109ed61010485016113c9565b6101a48401526001600160a01b037f000000000000000000000000000000000000000000000000000000000000000081166101c485015260209084906101e490829089907f0000000000000000000000000000000000000000000000000000000000000000165af18015610ac4576001938691610a96575b50905b8552826020526040852090838060a01b03166bffffffffffffffffffffffff60a01b8254161790550161095b565b610ab7915060203d8111610abd575b610aaf81836112e1565b810190611376565b38610a65565b503d610aa5565b6040513d87823e3d90fd5b600f546040516331428e7b60e01b8152600481018490526024810184905292906001600160a01b0316610b0460448501611395565b610b1161010485016113c9565b6101a48401526020836101c481887f00000000000000000000000000000000000000000000000000000000000000006001600160a01b03165af18015610ac4576001938691610b62575b5090610a68565b610b7a915060203d8111610abd57610aaf81836112e1565b38610b5b565b60405162461bcd60e51b81526020600482015260146024820152735661756c7420616c72656164792065786973747360601b6044820152606490fd5b8280f35b82356001600160a01b03811681036108bf5781526020928301920161093a565b8480fd5b634e487b7160e01b83526041600452602483fd5b50346101545760203660031901126101545760043580151580910361050c5760207f40db37ff5c0bdc2c427fbb2078c8f24afea940abac0e3c23bb4ea3bf2da2b21291610c5060018060a01b0360025416331461133d565b6003805460ff60a01b191660a083901b60ff60a01b16179055604051908152a180f35b50606036600319011261015457610c88611284565b906024356044359260ff60035460a01c16611093576001600160a01b039081168084526001602052604084205490929116156104fd57818352600160205260408320546001600160a01b03169173eeeeeeeeeeeeeeeeeeeeeeeeeeeeeeeeeeeeeeee8103610d965750503415610d8757604051638dbdbe6d60e01b8152346004820181905260248201949094523360448201529260209184916064918391905af1908115610d7b5790610d43575b602091505b604051908152f35b506020813d602011610d73575b81610d5d602093836112e1565b81010312610d6e5760209051610d36565b600080fd5b3d9150610d50565b604051903d90823e3d90fd5b63fe9ba5cd60e01b8252600482fd5b8193949115801561108a575b610f63576040516370a0823160e01b81526004810184905290602082602481845afa91821561107f57869261104b575b5060405160208101956323b872dd60e01b8752336024830152856044830152606482015260648152610e056084826112e1565b8680604097885193610e178a866112e1565b602085527f5361666545524332303a206c6f772d6c6576656c2063616c6c206661696c65646020860152519082865af13d1561103e573d9067ffffffffffffffff821161082c578751610e8c9392909190610e7c601f8201601f1916602001846112e1565b82523d8a602084013e5b846113fd565b805190811591821561101b575b505015610fc45790602060249493928651958680926370a0823160e01b82528760048301525afa938415610fba578694610f86575b5080840393808511610f725714610f63578351638dbdbe6d60e01b8152600481019390935260248301523360448301529092906020908490606490829085905af1918215610f59575090610f26575b60209150610d3b565b506020813d602011610f51575b81610f40602093836112e1565b81010312610d6e5760209051610f1d565b3d9150610f33565b51903d90823e3d90fd5b63fe9ba5cd60e01b8552600485fd5b634e487b7160e01b87526011600452602487fd5b9093506020813d602011610fb2575b81610fa2602093836112e1565b81010312610d6e57519238610ece565b3d9150610f95565b85513d88823e3d90fd5b845162461bcd60e51b815260206004820152602a60248201527f5361666545524332303a204552433230206f7065726174696f6e20646964206e6044820152691bdd081cdd58d8d9595960b21b6064820152608490fd5b81925090602091810103126108bb576020015180151581036108bb573880610e99565b90610e8c91606090610e86565b9091506020813d602011611077575b81611067602093836112e1565b81010312610d6e57519038610dd2565b3d915061105a565b6040513d88823e3d90fd5b50341515610da2565b63ab35696f60e01b8352600483fd5b5034610154576020366003190112610154576020906001600160a01b036110c7611284565b16815260018252604060018060a01b0391205416604051908152f35b90503461050c576101c036600319011261050c576110ff611284565b61110761129a565b6044359160843567ffffffffffffffff81116108bf5761112b9036906004016112b0565b909136610104116108bb5736610184116108bb57366101c4116108bb576001600160a01b03908116808852600160205260408820549094911615611275578415611266576001600160a01b0316928315611257578652600160205260408620546001600160a01b031693843b156108bb57916111d4918693889563ce28f7d760e01b86526004860152602485015260643560448501526101a060648501526101a4840191611319565b60a4356084830152604060c460a48401376101048360e484015b6002821061123657505050928183818196604061018461016484013703925af180156112295761121b5780f35b611224916112e1565b388180f35b50604051903d90823e3d90fd5b604091939550829450808260019481933701930191019086939186936111ee565b63d92e233d60e01b8752600487fd5b639abc749160e01b8752600487fd5b63dee790fb60e01b8752600487fd5b600435906001600160a01b0382168203610d6e57565b602435906001600160a01b0382168203610d6e57565b9181601f84011215610d6e5782359167ffffffffffffffff8311610d6e576020808501948460051b010111610d6e57565b90601f8019910116810190811067ffffffffffffffff82111761130357604052565b634e487b7160e01b600052604160045260246000fd5b81835290916001600160fb1b038311610d6e5760209260051b809284830137010190565b1561134457565b60405162461bcd60e51b815260206004820152600a60248201526927b7363c9037bbb732b960b11b6044820152606490fd5b90816020910312610d6e57516001600160a01b0381168103610d6e5790565b6004906000905b600682106113a957505050565b82546001600160a01b03168152600192830192919091019060200161139c565b600a906000905b600582106113dd57505050565b82546001600160a01b0316815260019283019291909101906020016113d0565b9192901561145f5750815115611411575090565b3b1561141a5790565b60405162461bcd60e51b815260206004820152601d60248201527f416464726573733a2063616c6c20746f206e6f6e2d636f6e74726163740000006044820152606490fd5b8251909150156114725750805190602001fd5b6040519062461bcd60e51b8252602060048301528181519182602483015260005b8381106114b55750508160006044809484010152601f80199101168101030190fd5b6020828201810151604487840101528593500161149356fea2646970667358221220e0d65f9a9dc8219458611f01ee70dab399e208471a8eee703e531a8607ddbfde64736f6c634300081c0033",
  "linkReferences": {},
  "deployedLinkReferences": {}
}