{
  "_format": "hh-sol-artifact-1",
  "contractName": "NativeVault",
  "sourceName": "src/states/NativeVault.sol",
  "abi": [
    {
      "inputs": [
        {
          "internalType": "address",
          "name": "_asset",
          "type": "address"
        },
        {
          "internalType": "address",
          "name": "_entrypoint",
          "type": "address"
        },
        {
          "internalType": "address[6]",
          "name": "_withdrawalVerifiers",
          "type": "address[6]"
        },
        {
          "internalType": "address[5]",
          "name": "_mergeVerifiers",
          "type": "address[5]"
        },
        {
          "internalType": "address",
          "name": "_swapVerifier",
          "type": "address"
        },
        {
          "internalType": "address",
          "name": "_weth",
          "type": "address"
        }
      ],
      "stateMutability": "nonpayable",
      "type": "constructor"
    },
    {
      "inputs": [],
      "name": "AmountMismatch",
      "type": "error"
    },
    {
      "inputs": [],
      "name": "InvalidDepositAmount",
      "type": "error"
    },
    {
      "inputs": [],
      "name": "InvalidNoteCount",
      "type": "error"
    },
    {
      "inputs": [],
      "name": "InvalidRecipient",
      "type": "error"
    },
    {
      "inputs": [],
      "name": "InvalidStateRoot",
      "type": "error"
    },
    {
      "inputs": [],
      "name": "InvalidSwapParams",
      "type": "error"
    },
    {
      "inputs": [],
      "name": "InvalidWithdrawalAmount",
      "type": "error"
    },
    {
      "inputs": [],
      "name": "InvalidZKProof",
      "type": "error"
    },
    {
      "inputs": [],
      "name": "NativeFundReceived",
      "type": "error"
    },
    {
      "inputs": [],
      "name": "NativeTransferFailed",
      "type": "error"
    },
    {
      "inputs": [],
      "name": "NullifierAlreadySpent",
      "type": "error"
    },
    {
      "inputs": [],
      "name": "OnlyEntrypoint",
      "type": "error"
    },
    {
      "anonymous": false,
      "inputs": [
        {
          "indexed": true,
          "internalType": "address",
          "name": "depositor",
          "type": "address"
        },
        {
          "indexed": false,
          "internalType": "uint256",
          "name": "amount",
          "type": "uint256"
        },
        {
          "indexed": false,
          "internalType": "uint256",
          "name": "commitment",
          "type": "uint256"
        },
        {
          "indexed": false,
          "internalType": "uint256",
          "name": "precommitment",
          "type": "uint256"
        }
      ],
      "name": "Deposited",
      "type": "event"
    },
    {
      "anonymous": false,
      "inputs": [
        {
          "indexed": false,
          "internalType": "uint256[]",
          "name": "nullifierHashes",
          "type": "uint256[]"
        },
        {
          "indexed": false,
          "internalType": "uint256",
          "name": "mergedCommitment",
          "type": "uint256"
        }
      ],
      "name": "Merged",
      "type": "event"
    },
    {
      "anonymous": false,
      "inputs": [
        {
          "indexed": true,
          "internalType": "address",
          "name": "recipient",
          "type": "address"
        },
        {
          "components": [
            {
              "internalType": "address",
              "name": "pool",
              "type": "address"
            },
            {
              "internalType": "address",
              "name": "srcToken",
              "type": "address"
            },
            {
              "internalType": "address",
              "name": "dstToken",
              "type": "address"
            },
            {
              "internalType": "address payable",
              "name": "recipient",
              "type": "address"
            },
            {
              "internalType": "uint256",
              "name": "amountIn",
              "type": "uint256"
            },
            {
              "internalType": "uint256",
              "name": "minAmountOut",
              "type": "uint256"
            },
            {
              "internalType": "uint24",
              "name": "fee",
              "type": "uint24"
            },
            {
              "internalType": "uint256",
              "name": "deadline",
              "type": "uint256"
            }
          ],
          "indexed": false,
          "internalType": "struct IVault.SwapParam",
          "name": "_param",
          "type": "tuple"
        },
        {
          "indexed": false,
          "internalType": "uint256",
          "name": "_spentNullifier",
          "type": "uint256"
        },
        {
          "indexed": false,
          "internalType": "uint256",
          "name": "_newCommitment",
          "type": "uint256"
        }
      ],
      "name": "Swapped",
      "type": "event"
    },
    {
      "anonymous": false,
      "inputs": [
        {
          "indexed": true,
          "internalType": "address",
          "name": "recipient",
          "type": "address"
        },
        {
          "indexed": false,
          "internalType": "uint256",
          "name": "withdrawnValue",
          "type": "uint256"
        },
        {
          "indexed": false,
          "internalType": "uint256[]",
          "name": "nullifierHashes",
          "type": "uint256[]"
        },
        {
          "indexed": false,
          "internalType": "uint256",
          "name": "changeCommitment",
          "type": "uint256"
        }
      ],
      "name": "Withdrawn",
      "type": "event"
    },
    {
      "inputs": [],
      "name": "WETH",
      "outputs": [
        {
          "internalType": "address",
          "name": "",
          "type": "address"
        }
      ],
      "stateMutability": "view",
      "type": "function"
    },
    {
      "inputs": [],
      "name": "asset",
      "outputs": [
        {
          "internalType": "address",
          "name": "",
          "type": "address"
        }
      ],
      "stateMutability": "view",
      "type": "function"
    },
    {
      "inputs": [
        {
          "internalType": "uint256",
          "name": "_amount",
          "type": "uint256"
        },
        {
          "internalType": "uint256",
          "name": "_precommitment",
          "type": "uint256"
        },
        {
          "internalType": "address",
          "name": "_depositor",
          "type": "address"
        }
      ],
      "name": "deposit",
      "outputs": [
        {
          "internalType": "uint256",
          "name": "_commitment",
          "type": "uint256"
        }
      ],
      "stateMutability": "payable",
      "type": "function"
    },
    {
      "inputs": [],
      "name": "entrypoint",
      "outputs": [
        {
          "internalType": "address",
          "name": "",
          "type": "address"
        }
      ],
      "stateMutability": "view",
      "type": "function"
    },
    {
      "inputs": [],
      "name": "getAsset",
      "outputs": [
        {
          "internalType": "address",
          "name": "_asset",
          "type": "address"
        }
      ],
      "stateMutability": "view",
      "type": "function"
    },
    {
      "inputs": [
        {
          "internalType": "uint256",
          "name": "_stateRoot",
          "type": "uint256"
        },
        {
          "internalType": "uint256[]",
          "name": "_nullifierHashes",
          "type": "uint256[]"
        },
        {
          "internalType": "uint256",
          "name": "_mergedCommitment",
          "type": "uint256"
        },
        {
          "internalType": "uint256[2]",
          "name": "_pA",
          "type": "uint256[2]"
        },
        {
          "internalType": "uint256[2][2]",
          "name": "_pB",
          "type": "uint256[2][2]"
        },
        {
          "internalType": "uint256[2]",
          "name": "_pC",
          "type": "uint256[2]"
        }
      ],
      "name": "merge",
      "outputs": [],
      "stateMutability": "nonpayable",
      "type": "function"
    },
    {
      "inputs": [],
      "name": "merkleTree",
      "outputs": [
        {
          "internalType": "contract MerkleTree",
          "name": "",
          "type": "address"
        }
      ],
      "stateMutability": "view",
      "type": "function"
    },
    {
      "inputs": [
        {
          "internalType": "uint256",
          "name": "_nullifier",
          "type": "uint256"
        }
      ],
      "name": "nullifiers",
      "outputs": [
        {
          "internalType": "bool",
          "name": "_spent",
          "type": "bool"
        }
      ],
      "stateMutability": "view",
      "type": "function"
    },
    {
      "inputs": [
        {
          "components": [
            {
              "internalType": "address",
              "name": "pool",
              "type": "address"
            },
            {
              "internalType": "address",
              "name": "srcToken",
              "type": "address"
            },
            {
              "internalType": "address",
              "name": "dstToken",
              "type": "address"
            },
            {
              "internalType": "address payable",
              "name": "recipient",
              "type": "address"
            },
            {
              "internalType": "uint256",
              "name": "amountIn",
              "type": "uint256"
            },
            {
              "internalType": "uint256",
              "name": "minAmountOut",
              "type": "uint256"
            },
            {
              "internalType": "uint24",
              "name": "fee",
              "type": "uint24"
            },
            {
              "internalType": "uint256",
              "name": "deadline",
              "type": "uint256"
            }
          ],
          "internalType": "struct IVault.SwapParam",
          "name": "_param",
          "type": "tuple"
        },
        {
          "internalType": "address",
          "name": "_swapRouter",
          "type": "address"
        },
        {
          "components": [
            {
              "internalType": "uint256",
              "name": "stateRoot",
              "type": "uint256"
            },
            {
              "internalType": "uint256",
              "name": "nullifier",
              "type": "uint256"
            },
            {
              "internalType": "uint256",
              "name": "newCommitment",
              "type": "uint256"
            },
            {
              "internalType": "address",
              "name": "recipient",
              "type": "address"
            },
            {
              "internalType": "address",
              "name": "pool",
              "type": "address"
            },
            {
              "internalType": "address",
              "name": "dstToken",
              "type": "address"
            },
            {
              "internalType": "uint256",
              "name": "fee",
              "type": "uint256"
            },
            {
              "internalType": "uint256",
              "name": "minAmountOut",
              "type": "uint256"
            },
            {
              "internalType": "uint256[2]",
              "name": "pA",
              "type": "uint256[2]"
            },
            {
              "internalType": "uint256[2][2]",
              "name": "pB",
              "type": "uint256[2][2]"
            },
            {
              "internalType": "uint256[2]",
              "name": "pC",
              "type": "uint256[2]"
            }
          ],
          "internalType": "struct IVault.ZKProof",
          "name": "_zkProof",
          "type": "tuple"
        }
      ],
      "name": "swap",
      "outputs": [],
      "stateMutability": "nonpayable",
      "type": "function"
    },
    {
      "inputs": [
        {
          "internalType": "address",
          "name": "_recipient",
          "type": "address"
        },
        {
          "internalType": "uint256",
          "name": "_withdrawnValue",
          "type": "uint256"
        },
        {
          "internalType": "uint256",
          "name": "_stateRoot",
          "type": "uint256"
        },
        {
          "internalType": "uint256[]",
          "name": "_nullifierHashes",
          "type": "uint256[]"
        },
        {
          "internalType": "uint256",
          "name": "_changeCommitment",
          "type": "uint256"
        },
        {
          "internalType": "uint256[2]",
          "name": "_pA",
          "type": "uint256[2]"
        },
        {
          "internalType": "uint256[2][2]",
          "name": "_pB",
          "type": "uint256[2][2]"
        },
        {
          "internalType": "uint256[2]",
          "name": "_pC",
          "type": "uint256[2]"
        }
      ],
      "name": "withdraw",
      "outputs": [],
      "stateMutability": "nonpayable",
      "type": "function"
    }
  ],
  "bytecode": "0x610260604052346102d757612e758038038061001a816102f4565b9283398101906101e0818303126102d75761003481610319565b9161004160208301610319565b81605f840112156102d75761005660c06102f4565b9081926101008501938185116102d75760408601905b8582106102dc5750508061011f860112156102d75761008b60a06102f4565b9384906101a087019283116102d757905b8282106102bf5750506101c06100b46100bb92610319565b9501610319565b6001600055608095865260a091825282516001600160a01b0390811660c052602080850151821660e052604080860151831661010052606080870151841661012052868a01518416610140529590940151821661016052855182166101805285015181166101a0528483015181166101c0529284015183166101e05292909401518116610200529190911661022052905161088a808201906001600160401b038211838310176102a95760209183916125eb83393081520301906000f0801561029d57600180546001600160a01b0319166001600160a01b0392831617905581161561026957610240526040516122bd908161032e823960805181611e3d015260a05181818161015a015281816109cb01528181611393015281816113df015261164b015260c05181610ae2015260e05181610d9701526101005181610eb001526101205181610fbc015261014051816110dc0152610160518161121e0152610180518161176f01526101a05181611a0601526101c05181611b2801526101e05181611c3d01526102005181611d5d0152610220518161032a0152610240518181816103cf015261134e0152f35b60405162461bcd60e51b815260206004820152600c60248201526b092dcecc2d8d2c840ae8aa8960a31b6044820152606490fd5b6040513d6000823e3d90fd5b634e487b7160e01b600052604160045260246000fd5b602080916102cc84610319565b81520191019061009c565b600080fd5b602080916102e984610319565b81520191019061006c565b6040519190601f01601f191682016001600160401b038111838210176102a957604052565b51906001600160a01b03821682036102d75756fe6080604052600436101561001257600080fd5b6000803560e01c80631b2a487a146115f557806338d52e0f146115f05780635c222bad146115f05780638dbdbe6d146113c2578063a65d69d41461137d578063ad5c464814611338578063bb7df0521461130f578063ce28f7d714610967578063d21e82ab146109385763d308a6561461008b57600080fd5b346107ee573660031901610320811261093457610100136107ee576040516100b281611e98565b6100ba611e82565b81526024356001600160a01b03811681036109305760208201526100dc611e6c565b6040820190815290606435906001600160a01b038216820361092c57606081019182526080810191608435835260a0820160a435815260c4359362ffffff851685036109285760c0840194855260e43560e08501908152610104356001600160a01b03811696908790036109245761020036610123190112610924577f00000000000000000000000000000000000000000000000000000000000000006001600160a01b0316330361091557610190612036565b6001546040516376a5cef360e01b815261012435600482018190529591602090829060249082906001600160a01b03165afa90811561090a578b916108eb575b50156108dc5785516001600160a01b03908116906101ec611ff1565b16036108cd5786516001600160a01b0390811690610208612008565b16036108be5788516001600160a01b039081169061022461201f565b16036108be5762ffffff825116936101e4358095036108af57815196610204358098036108a05761012096878d6040519061025f8383611f37565b503690376040519061027082611f1b565b8351825260208201526101643598896040830152610144359788606084015260018060a01b0361029e611ff1565b1660808401526001600160a01b036102b4612008565b1660a08401526001600160a01b036102ca61201f565b1660c084015260e08301526101008201526040805163c542c93b60e01b8152918e91610224600485013761030360448401610264611f96565b60406102e460c48501379061010483015b6009821061088a575060209150829050610224817f00000000000000000000000000000000000000000000000000000000000000006001600160a01b03165afa90811561087f578d91610850575b501561084157858c52600260205260ff60408d20541661083257858c52600260205260408c20600160ff198254161790558b80602060018060a01b036001541660248c60405195869384926390b5561d60e01b845260048401525af18015610825576107f1575b505081517f00000000000000000000000000000000000000000000000000000000000000006001600160a01b0316908d823b156107ee57604051630d0e30db60e41b81529182906004908290865af180156107e1576107c6575b508c908b60208e86518580604051928584019063095ea7b360e01b825287602486015260448501526044845261045a606485611f37565b83519082895af161046961208c565b81610799575b508061078f575b1561074c575b5060018060a01b0390511661010462ffffff8a5116938660018060a01b03895116918d51928b518d5190604051956104b387611e98565b8b875289870198895260408088019b8c52606088019485526080880191825260a0880192835260c0880193845260e08801878152905163414bf38960e01b815297516001600160a01b0390811660048a015299518a1660248901529a5162ffffff16604488015292518816606487015291516084860152905160a48501525160c4840152955190931660e482015293849283915af18015610741576106d1575b50917fc77b7ea62b187c443d6bbed0b43932acb286c774df00e60d35c3a0674b0417a49b6101409b9a99989796949262ffffff96946040519180806020850163095ea7b360e01b8152866024870152816044870152604486526105b7606487611f37565b85519082865af16105c661208c565b816106a2575b5080610698575b15610652575b5050505060018060a01b038151169c6040519a60018060a01b038151168c52602060018060a01b039101511660208c015260018060a01b0390511660408b015260018060a01b0390511660608a01525160808901525160a0880152511660c08601525160e0850152610100840152820152a26001815580f35b61068f9361068a916040519163095ea7b360e01b60208401526024830152604482015260448152610684606482611f37565b826120cb565b6120cb565b38808f806105d9565b50813b15156105d3565b80518015925082156106b7575b5050386105cc565b6106ca9250602080918301019101611f58565b38806106af565b9a9998979695939150939160208b3d602011610739575b816106f560209383611f37565b81010312610734579899509697959694959394919390928c907fc77b7ea62b187c443d6bbed0b43932acb286c774df00e60d35c3a0674b0417a4610553565b600080fd5b3d91506106e8565b6040513d85823e3d90fd5b6107899061078360405163095ea7b360e01b868201528660248201528860448201526044815261077d606482611f37565b876120cb565b856120cb565b3861047c565b50843b1515610476565b80518015925082156107ae575b50503861046f565b6107bf925081018501908501611f58565b38806107a6565b908b8e60209f8f94906107d891611f37565b9e505090610423565b8e604051903d90823e3d90fd5b80fd5b8160209182903d841161081d575b6108098284611f37565b508101031261081957518c6103c9565b8c80fd5b3d91506107ff565b50604051903d90823e3d90fd5b63b115d85760e01b8c5260048cfd5b6303b2487b60e11b8c5260048cfd5b610872915060203d602011610878575b61086a8183611f37565b810190611f58565b38610362565b503d610860565b6040513d8f823e3d90fd5b6020806001928551815201930191019091610314565b635037072d60e01b8c5260048cfd5b635037072d60e01b8b5260048bfd5b635037072d60e01b8a5260048afd5b634e46966960e11b8a5260048afd5b630b6fac0360e41b8a5260048afd5b610904915060203d6020116108785761086a8183611f37565b386101d0565b6040513d8d823e3d90fd5b6301048f7b60e71b8952600489fd5b8880fd5b8680fd5b8380fd5b8280fd5b5080fd5b50346107ee5760203660031901126107ee5760ff60406020926004358152600284522054166040519015158152f35b50346107ee576101a03660031901126107ee57610982611e82565b906044356024356064356001600160401b03811161092c576109a8903690600401611df7565b919094608435903660e41161130b57366101641161130b57366101a41161130b577f00000000000000000000000000000000000000000000000000000000000000006001600160a01b031633036112fc57610a01612036565b8315948580156112f2575b6112e35783156112d4576001546040516376a5cef360e01b81526004810183905290602090829060249082906001600160a01b03165afa9081156112c95788916112aa575b501561129b576001600160a01b0382169560018603610d045760405191610a7783611f00565b8583526020830152836040830152610cf05787356060820152856080820152604051906334baeab960e01b8252604060a46004840137610abb6044830160e4611f96565b604061016460c48401378761010483015b60058210610cda5750602091508290506101a4817f00000000000000000000000000000000000000000000000000000000000000006001600160a01b03165afa908115610c30578791610cbb575b505b15610cac57828691825b868110610c6d5750825b868110610c3b575083610bb2575b82809281925af1610b4d61208c565b5015610ba357610b937ff3dee028455024d57aff7b13da341b8712ae2ae561b33aca90f958a763265c9b9495966040519485948552606060208601526060850191611fcd565b9060408301520390a26001815580f35b633d2cec6f60e21b8552600485fd5b6001546040516390b5561d60e01b8152600481018690529193919250602091839160249183916001600160a01b03165af18015610c30578785819482948394610c01575b509250925050610b3e565b610c229060203d602011610c29575b610c1a8183611f37565b810190611fbe565b5038610bf6565b503d610c10565b6040513d89823e3d90fd5b90925060019150610c4d81878b611f70565b3588526002602052604088208260ff198254161790550186918491610b30565b610c7d919350809250868a611f70565b358752600260205260ff604088205416610c9d5760010186918491610b26565b63b115d85760e01b8752600487fd5b6303b2487b60e11b8652600486fd5b610cd4915060203d6020116108785761086a8183611f37565b38610b1a565b6020806001928551815201930191019091610acc565b634e487b7160e01b87526032600452602487fd5b60028603610e0a5760405191610d1983611ee5565b8583526020830152836040830152610cf057873560608201528460011015610cf057602088013560808201528560a08201526040519063f398789b60e01b8252604060a46004840137610d706044830160e4611f96565b604061016460c48401378761010483015b60068210610df45750602091508290506101c4817f00000000000000000000000000000000000000000000000000000000000000006001600160a01b03165afa908115610c30578791610dd5575b50610b1c565b610dee915060203d6020116108785761086a8183611f37565b38610dcf565b6020806001928551815201930191019091610d81565b60038603610f035760405191610e1f83611eca565b8583526020830152836040830152610cf057873560608201528460011015610cf057602088013560808201528460021015610cf057604088013560a08201528560c08201526040519063c894e75760e01b8252604060a46004840137610e896044830160e4611f96565b604061016460c48401378761010483015b60078210610eed5750602091508290506101e4817f00000000000000000000000000000000000000000000000000000000000000006001600160a01b03165afa908115610c30578791610dd55750610b1c565b6020806001928551815201930191019091610e9a565b6004860361100f5760405191610f1883611e98565b8583526020830152836040830152610cf057873560608201528460011015610cf057602088013560808201528460021015610cf057604088013560a08201528460031015610cf057606088013560c08201528560e082015260405190636490cd3d60e11b8252604060a46004840137610f956044830160e4611f96565b604061016460c48401378761010483015b60088210610ff9575060209150829050610204817f00000000000000000000000000000000000000000000000000000000000000006001600160a01b03165afa908115610c30578791610dd55750610b1c565b6020806001928551815201930191019091610fa6565b6005860361112f576040519161102483611f1b565b8583526020830152836040830152610cf057873560608201528460011015610cf057602088013560808201528460021015610cf057604088013560a08201528460031015610cf057606088013560c08201528460041015610cf057608088013560e0820152856101008201526040519063c542c93b60e01b8252604060a460048401376110b56044830160e4611f96565b604061016460c48401378761010483015b60098210611119575060209150829050610224817f00000000000000000000000000000000000000000000000000000000000000006001600160a01b03165afa908115610c30578791610dd55750610b1c565b60208060019285518152019301910190916110c6565b6040519161014083018381106001600160401b03821117611287576040528583526020830152836040830152610cf057873560608201528460011015610cf057602088013560808201528460021015610cf057604088013560a08201528460031015610cf057606088013560c08201528460041015610cf057608088013560e08201528460051015610cf05760a088013561010082015285610120820152604051906379ddb87b60e11b8252604060a4600484013760e488604484015b6002821061127157505050604061016460c48401378761010483015b600a821061125b575060209150829050610244817f00000000000000000000000000000000000000000000000000000000000000006001600160a01b03165afa908115610c30578791610dd55750610b1c565b6020806001928551815201930191019091611208565b60408082818660019537019301910190916111ec565b634e487b7160e01b8a52604160045260248afd5b630b6fac0360e41b8752600487fd5b6112c3915060203d6020116108785761086a8183611f37565b38610a51565b6040513d8a823e3d90fd5b639abc749160e01b8752600487fd5b630967f00b60e21b8752600487fd5b5060068511610a0c565b6301048f7b60e71b8652600486fd5b8580fd5b50346107ee57806003193601126107ee576001546040516001600160a01b039091168152602090f35b50346107ee57806003193601126107ee576040517f00000000000000000000000000000000000000000000000000000000000000006001600160a01b03168152602090f35b50346107ee57806003193601126107ee576040517f00000000000000000000000000000000000000000000000000000000000000006001600160a01b03168152602090f35b5060603660031901126107ee576024356004356113dd611e6c565b7f00000000000000000000000000000000000000000000000000000000000000006001600160a01b031633036115e157611415612036565b81156115d25760405192604084018481106001600160401b038211176115be5760409081528385526020850182905251632b0aac7f60e11b81529385600486015b600282106115a85750505060208460448173__$75f79a42d9bcbdbb69ad79ebd80f556f39$__5af493841561159d578594611565575b506001546040516390b5561d60e01b81526004810186905290602090829060249082908a906001600160a01b03165af1801561155a5761152b575b5082340361151c57917f91ede45f04a37a7c170f5c1207df3b6bc748dc1e04ad5e917a241d0f52feada360606020969360019560405194855287898601526040850152858060a01b031692a255604051908152f35b6355e97b0d60e01b8552600485fd5b6020813d602011611552575b8161154460209383611f37565b8101031261130b57516114c7565b3d9150611537565b6040513d88823e3d90fd5b9093506020813d602011611595575b8161158160209383611f37565b810103126115915751923861148c565b8480fd5b3d9150611574565b6040513d87823e3d90fd5b6020806001928551815201930191019091611456565b634e487b7160e01b86526041600452602486fd5b63fe9ba5cd60e01b8452600484fd5b6301048f7b60e71b8452600484fd5b611e27565b50346107ee576101603660031901126107ee57600435906024356001600160401b0381116109345761162b903690600401611df7565b604435933660a41161092c57366101241161092c57366101641161092c577f00000000000000000000000000000000000000000000000000000000000000006001600160a01b031633036115e157611681612036565b600282108015611ded575b611dde576001546040516376a5cef360e01b81526004810183905290602090829060249082906001600160a01b03165afa90811561159d578591611dbf575b5015611db0576002820361196b5760405190608082018281106001600160401b038211176115be576040528152846020820152811561195757823560408201528160011015611957576020830135606082015260408051635fe8c13b60e01b815291906064600484013760a485604484015b6002821061194157505050604061012460c48401378461010483015b6004821061192b575060209150829050610184817f00000000000000000000000000000000000000000000000000000000000000006001600160a01b03165afa908115611920578491611901575b505b156118f257825b8181106118bc5750825b81811061189257508293602060018060a01b03600154166024604051809781936390b5561d60e01b83528660048401525af1801561159d57611841575b7f0c834fb4dca660c7c0016cf0716f341c5bd26cd91f18223279e15942b2fe0cda9350611831604051938493604085526040850191611fcd565b9060208301520390a16001815580f35b6020843d60201161188a575b8161185a60209383611f37565b81010312611591577f0c834fb4dca660c7c0016cf0716f341c5bd26cd91f18223279e15942b2fe0cda93506117f7565b3d915061184d565b806118a06001928486611f70565b358552600260205260408520805460ff191683179055016117ba565b6118c7818385611f70565b358452600260205260ff6040852054166118e3576001016117b0565b63b115d85760e01b8452600484fd5b6303b2487b60e11b8352600483fd5b61191a915060203d6020116108785761086a8183611f37565b386117a7565b6040513d86823e3d90fd5b6020806001928551815201930191019091611759565b604080828186600195370193019101909161173d565b634e487b7160e01b84526032600452602484fd5b60038203611a79576040519061198082611f00565b81528460208201528115611957578235604082015281600110156119575760208301356060820152816002101561195757604083810135608083015280516334baeab960e01b81529190606460048401376119df6044830160a4611f96565b604061012460c48401378461010483015b60058210611a635750602091508290506101a4817f00000000000000000000000000000000000000000000000000000000000000006001600160a01b03165afa908115611920578491611a44575b506117a9565b611a5d915060203d6020116108785761086a8183611f37565b38611a3e565b60208060019285518152019301910190916119f0565b60048203611b7b5760405190611a8e82611ee5565b8152846020820152811561195757823560408201528160011015611957576020830135606082015281600210156119575760408301356080820152816003101561195757606083013560a08201526040805163f398789b60e01b8152919060646004840137611b016044830160a4611f96565b604061012460c48401378461010483015b60068210611b655750602091508290506101c4817f00000000000000000000000000000000000000000000000000000000000000006001600160a01b03165afa908115611920578491611a4457506117a9565b6020806001928551815201930191019091611b12565b60058203611c905760405190611b9082611eca565b8152846020820152811561195757823560408201528160011015611957576020830135606082015281600210156119575760408301356080820152816003101561195757606083013560a0820152816004101561195757608083013560c08201526040805163c894e75760e01b8152919060646004840137611c166044830160a4611f96565b604061012460c48401378461010483015b60078210611c7a5750602091508290506101e4817f00000000000000000000000000000000000000000000000000000000000000006001600160a01b03165afa908115611920578491611a4457506117a9565b6020806001928551815201930191019091611c27565b60405190611c9d82611e98565b8152846020820152811561195757823560408201528160011015611957576020830135606082015281600210156119575760408301356080820152816003101561195757606083013560a0820152816004101561195757608083013560c082015281600510156119575760a083013560e082015260408051636490cd3d60e11b8152919060646004840137611d366044830160a4611f96565b604061012460c48401378461010483015b60088210611d9a575060209150829050610204817f00000000000000000000000000000000000000000000000000000000000000006001600160a01b03165afa908115611920578491611a4457506117a9565b6020806001928551815201930191019091611d47565b630b6fac0360e41b8452600484fd5b611dd8915060203d6020116108785761086a8183611f37565b386116cb565b630967f00b60e21b8452600484fd5b506006821161168c565b9181601f84011215610734578235916001600160401b038311610734576020808501948460051b01011161073457565b34610734576000366003190112610734576040517f00000000000000000000000000000000000000000000000000000000000000006001600160a01b03168152602090f35b604435906001600160a01b038216820361073457565b600435906001600160a01b038216820361073457565b61010081019081106001600160401b03821117611eb457604052565b634e487b7160e01b600052604160045260246000fd5b60e081019081106001600160401b03821117611eb457604052565b60c081019081106001600160401b03821117611eb457604052565b60a081019081106001600160401b03821117611eb457604052565b61012081019081106001600160401b03821117611eb457604052565b90601f801991011681019081106001600160401b03821117611eb457604052565b90816020910312610734575180151581036107345790565b9190811015611f805760051b0190565b634e487b7160e01b600052603260045260246000fd5b906000905b60028210611fa857505050565b6040808281866001953701930191019091611f9b565b90816020910312610734575190565b81835290916001600160fb1b0383116107345760209260051b809284830137010190565b610184356001600160a01b03811681036107345790565b6101a4356001600160a01b03811681036107345790565b6101c4356001600160a01b03811681036107345790565b600260005414612047576002600055565b60405162461bcd60e51b815260206004820152601f60248201527f5265656e7472616e637947756172643a207265656e7472616e742063616c6c006044820152606490fd5b3d156120c6573d906001600160401b038211611eb457604051916120ba601f8201601f191660200184611f37565b82523d6000602084013e565b606090565b604080519092612130926001600160a01b03169060009081906120ee8786611f37565b602085527f5361666545524332303a206c6f772d6c6576656c2063616c6c206661696c6564602086015260208151910182855af161212a61208c565b916121b7565b805190811591821561219d575b5050156121475750565b5162461bcd60e51b815260206004820152602a60248201527f5361666545524332303a204552433230206f7065726174696f6e20646964206e6044820152691bdd081cdd58d8d9595960b21b6064820152608490fd5b6121b09250602080918301019101611f58565b388061213d565b9192901561221957508151156121cb575090565b3b156121d45790565b60405162461bcd60e51b815260206004820152601d60248201527f416464726573733a2063616c6c20746f206e6f6e2d636f6e74726163740000006044820152606490fd5b82519091501561222c5750805190602001fd5b6040519062461bcd60e51b8252602060048301528181519182602483015260005b83811061226f5750508160006044809484010152601f80199101168101030190fd5b6020828201810151604487840101528593500161224d56fea26469706673582212207745d9aa5b74bd65d7a9b3a7df05dcb83da6e377eec5e20a8fef99715594ea4b64736f6c634300081c003360a080604052346101cf5760208161088a803803809161001f82856101d4565b8339810103126101cf57516001600160a01b03811681036101cf5760805260008073__$75f79a42d9bcbdbb69ad79ebd80f556f39$__5b602063ffffffff8316106100bf577f22157c206018468b45ae7922bc7a0b0cb8feed201dac3c6fb5e7876aa94e11e983905560008381526042602052604090819020805460ff191660011790555161067c908161020e823960805181818160cf01526101e70152f35b909160208310156101b9576020830181905580835560408051600092909182016001600160401b038111838210176101a557604052808252602082015260405190632b0aac7f60e11b82526004820183905b6002821061018e57505050602081604481865af4918215610182578092610146575b5050600163ffffffff9193011690610056565b9091506020823d821161017a575b81610161602093836101d4565b81010312610177575051600163ffffffff610133565b80fd5b3d9150610154565b604051903d90823e3d90fd5b825181526020928301926001929092019101610111565b634e487b7160e01b84526041600452602484fd5b634e487b7160e01b600052603260045260246000fd5b600080fd5b601f909101601f19168101906001600160401b038211908210176101f757604052565b634e487b7160e01b600052604160045260246000fdfe608080604052600436101561001357600080fd5b60003560e01c908163081dc6811461056d5750806312ad73811461053c578063367506ef146101925780635ca1e1651461050d57806376a5cef3146104e557806390b5561d146101d157806390eeb02b146101ad578063949d225d14610157578063a27154ba14610192578063cd87a3b414610175578063de8fa43114610157578063e82955881461012c578063f178e47c146101035763fbfa77cf146100b957600080fd5b346100fe5760003660031901126100fe576040517f00000000000000000000000000000000000000000000000000000000000000006001600160a01b03168152602090f35b600080fd5b346100fe5760203660031901126100fe5760043560208110156100fe5760209054604051908152f35b346100fe5760203660031901126100fe5760043560208110156100fe57602090810154604051908152f35b346100fe5760003660031901126100fe576020604054604051908152f35b346100fe5760003660031901126100fe5760206040516101008152f35b346100fe5760003660031901126100fe576020604051818152f35b346100fe5760003660031901126100fe57602063ffffffff60435416604051908152f35b346100fe5760203660031901126100fe576004357f00000000000000000000000000000000000000000000000000000000000000006001600160a01b031633036104d4576040546401000000008110156104c35780829160005b602063ffffffff8216106103255750506001810180821161030f5760405560435463ffffffff81169163ffffffff831461030f5760209460ff60609360017fcb249c8292372bd11f567786635483fca9e635030baafca55ff1a8940141d22196019063ffffffff82169063ffffffff191617604355168060005260418752604060002054806102f5575b50600052604186528460406000205584600052604286526040600020600160ff1982541617905560405191825285820152836040820152a1604051908152f35b60005260428752604060002060ff198154169055876102b5565b634e487b7160e01b600052601160045260246000fd5b90926001841661040f5760208210156103f95780825560405190610348826105c4565b81526103746020600092848201548282015260405180938192632b0aac7f60e11b835260048301610618565b038173__$75f79a42d9bcbdbb69ad79ebd80f556f39$__5af49182156103ed5780926103b1575b5050600163ffffffff91945b811c92011661022b565b9091506020823d82116103e5575b816103cc602093836105f6565b810103126103e2575051600163ffffffff61039b565b80fd5b3d91506103bf565b604051903d90823e3d90fd5b634e487b7160e01b600052603260045260246000fd5b6040519061041c826105c4565b60208310156103f95761044e91602091845482528282015260405180938192632b0aac7f60e11b835260048301610618565b038173__$75f79a42d9bcbdbb69ad79ebd80f556f39$__5af49081156104b757600091610485575b50600163ffffffff91946103a7565b906020823d82116104af575b8161049e602093836105f6565b810103126103e25750516001610476565b3d9150610491565b6040513d6000823e3d90fd5b633977650160e01b60005260046000fd5b638d1af8bd60e01b60005260046000fd5b346100fe5760203660031901126100fe5760206105036004356105a4565b6040519015158152f35b346100fe5760003660031901126100fe5760ff6043541660005260416020526020604060002054604051908152f35b346100fe5760203660031901126100fe576004356000526042602052602060ff604060002054166040519015158152f35b346100fe5760203660031901126100fe576004359063ffffffff82168092036100fe57602091600052604182526040600020548152f35b80156105be57600052604260205260ff6040600020541690565b50600090565b6040810190811067ffffffffffffffff8211176105e057604052565b634e487b7160e01b600052604160045260246000fd5b90601f8019910116810190811067ffffffffffffffff8211176105e057604052565b919060408301926000905b6002821061063057505050565b602080600192855181520193019101909161062356fea2646970667358221220ec697c3cd688a1fa9c2bb456ecd87255f0e772fe9d28ebe804a44c2bd8c9064764736f6c634300081c0033",
  "linkReferences": {
    "poseidon-solidity/PoseidonT3.sol": {
      "PoseidonT3": [
        {
          "length": 20,
          "start": 6039
        },
        {
          "length": 20,
          "start": 9773
        },
        {
          "length": 20,
          "start": 11121
        },
        {
          "length": 20,
          "start": 11339
        }
      ]
    }
  },
  "deployedLinkReferences": {
    "poseidon-solidity/PoseidonT3.sol": {
      "PoseidonT3": [
        {
          "length": 20,
          "start": 5225
        }
      ]
    }
  }
}